{
	"_format": "hh-sol-artifact-1",
	"contractName": "PrntNFTMarketplace",
	"sourceName": "contracts/PrntNFTMarketplace.sol",
	"abi": [
		{
			"inputs": [
				{
					"internalType": "contract PrntNFTData",
					"name": "_prntNFTData",
					"type": "address"
				}
			],
			"payable": false,
			"stateMutability": "nonpayable",
			"type": "constructor"
		},
		{
			"anonymous": false,
			"inputs": [
				{
					"indexed": false,
					"internalType": "contract PrntNFT",
					"name": "prntNFT",
					"type": "address"
				},
				{
					"indexed": false,
					"internalType": "uint256",
					"name": "prntId",
					"type": "uint256"
				},
				{
					"indexed": false,
					"internalType": "address",
					"name": "ownerBeforeOwnershipTransferred",
					"type": "address"
				},
				{
					"indexed": false,
					"internalType": "address",
					"name": "ownerAfterOwnershipTransferred",
					"type": "address"
				}
			],
			"name": "PrntNFTOwnershipChanged",
			"type": "event"
		},
		{
			"anonymous": false,
			"inputs": [
				{
					"indexed": false,
					"internalType": "uint256",
					"name": "ad",
					"type": "uint256"
				},
				{
					"indexed": false,
					"internalType": "bytes32",
					"name": "status",
					"type": "bytes32"
				}
			],
			"name": "TradeStatusChange",
			"type": "event"
		},
		{
			"constant": true,
			"inputs": [],
			"name": "PRNT_NFT_MARKETPLACE",
			"outputs": [
				{
					"internalType": "address payable",
					"name": "",
					"type": "address"
				}
			],
			"payable": false,
			"stateMutability": "view",
			"type": "function"
		},
		{
			"constant": false,
			"inputs": [
				{
					"internalType": "contract PrntNFT",
					"name": "prntNFT",
					"type": "address"
				},
				{
					"internalType": "uint256",
					"name": "tokenId",
					"type": "uint256"
				}
			],
			"name": "buyPrntNFT",
			"outputs": [
				{
					"internalType": "bool",
					"name": "",
					"type": "bool"
				}
			],
			"payable": true,
			"stateMutability": "payable",
			"type": "function"
		},
		{
			"constant": false,
			"inputs": [
				{
					"internalType": "contract PrntNFT",
					"name": "prntNFT",
					"type": "address"
				},
				{
					"internalType": "uint256",
					"name": "_tokenId",
					"type": "uint256"
				}
			],
			"name": "cancelTrade",
			"outputs": [],
			"payable": false,
			"stateMutability": "nonpayable",
			"type": "function"
		},
		{
			"constant": true,
			"inputs": [
				{
					"internalType": "address",
					"name": "owner",
					"type": "address"
				}
			],
			"name": "getCollections",
			"outputs": [
				{
					"components": [
						{
							"internalType": "contract PrntNFT",
							"name": "prntNFT",
							"type": "address"
						},
						{
							"internalType": "string",
							"name": "tokenUri",
							"type": "string"
						},
						{
							"internalType": "uint256",
							"name": "royalties",
							"type": "uint256"
						}
					],
					"internalType": "struct PrntNFTDataObjects.Prnt[]",
					"name": "",
					"type": "tuple[]"
				}
			],
			"payable": false,
			"stateMutability": "view",
			"type": "function"
		},
		{
			"constant": true,
			"inputs": [
				{
					"internalType": "contract PrntNFT",
					"name": "prntNFT",
					"type": "address"
				},
				{
					"internalType": "uint256",
					"name": "_tokenId",
					"type": "uint256"
				}
			],
			"name": "getTrade",
			"outputs": [
				{
					"components": [
						{
							"internalType": "address",
							"name": "seller",
							"type": "address"
						},
						{
							"internalType": "uint256",
							"name": "prntPrice",
							"type": "uint256"
						},
						{
							"internalType": "bytes32",
							"name": "status",
							"type": "bytes32"
						}
					],
					"internalType": "struct PrntNFTTradable.Trade",
					"name": "trade",
					"type": "tuple"
				}
			],
			"payable": false,
			"stateMutability": "view",
			"type": "function"
		},
		{
			"constant": false,
			"inputs": [
				{
					"internalType": "contract PrntNFT",
					"name": "prntNFT",
					"type": "address"
				},
				{
					"internalType": "uint256",
					"name": "_tokenId",
					"type": "uint256"
				},
				{
					"internalType": "uint256",
					"name": "_prntPrice",
					"type": "uint256"
				}
			],
			"name": "openTrade",
			"outputs": [],
			"payable": false,
			"stateMutability": "nonpayable",
			"type": "function"
		},
		{
			"constant": false,
			"inputs": [
				{
					"internalType": "contract PrntNFT",
					"name": "prntNFT",
					"type": "address"
				},
				{
					"internalType": "uint256",
					"name": "_tokenId",
					"type": "uint256"
				},
				{
					"internalType": "uint256",
					"name": "_prntPrice",
					"type": "uint256"
				}
			],
			"name": "openTradeWhenCreateNewPrntNFT",
			"outputs": [],
			"payable": false,
			"stateMutability": "nonpayable",
			"type": "function"
		},
		{
			"constant": true,
			"inputs": [],
			"name": "prntNFTData",
			"outputs": [
				{
					"internalType": "contract PrntNFTData",
					"name": "",
					"type": "address"
				}
			],
			"payable": false,
			"stateMutability": "view",
			"type": "function"
		},
		{
			"constant": true,
			"inputs": [
				{
					"internalType": "address",
					"name": "",
					"type": "address"
				},
				{
					"internalType": "uint256",
					"name": "",
					"type": "uint256"
				}
			],
			"name": "trades",
			"outputs": [
				{
					"internalType": "address",
					"name": "seller",
					"type": "address"
				},
				{
					"internalType": "uint256",
					"name": "prntPrice",
					"type": "uint256"
				},
				{
					"internalType": "bytes32",
					"name": "status",
					"type": "bytes32"
				}
			],
			"payable": false,
			"stateMutability": "view",
			"type": "function"
		},
		{
			"constant": false,
			"inputs": [
				{
					"internalType": "contract PrntNFT",
					"name": "prntNFT",
					"type": "address"
				},
				{
					"internalType": "uint256",
					"name": "_tokenId",
					"type": "uint256"
				},
				{
					"internalType": "address",
					"name": "_buyer",
					"type": "address"
				}
			],
			"name": "transferOwnershipOfPrntNFT",
			"outputs": [],
			"payable": false,
			"stateMutability": "nonpayable",
			"type": "function"
		}
	],
	"bytecode": "0x60806040523480156200001157600080fd5b5060405162001f8b38038062001f8b833981016040819052620000349162000092565b600080546001600160a01b039092166001600160a01b0319928316811782556002919091556003805483163317905560068054831690911790556005805490911630179055620000fb565b80516200008c81620000e1565b92915050565b600060208284031215620000a557600080fd5b6000620000b384846200007f565b949350505050565b60006200008c82620000d5565b60006200008c82620000bb565b6001600160a01b031690565b620000ec81620000c8565b8114620000f857600080fd5b50565b611e80806200010b6000396000f3fe6080604052600436106100915760003560e01c80639a59ba9b116100595780639a59ba9b1461015f578063a8ddeb331461017f578063b662d966146101a1578063baea40e2146101c1578063ca142f75146101e157610091565b8063127f14981461009657806313d8f3e4146100cc5780633b455a93146100fb5780635776ffe11461011d578063759c4bf31461013f575b600080fd5b3480156100a257600080fd5b506100b66100b13660046115a6565b61020e565b6040516100c39190611b48565b60405180910390f35b3480156100d857600080fd5b506100ec6100e73660046115ea565b610336565b6040516100c393929190611b2d565b34801561010757600080fd5b5061011061036a565b6040516100c39190611b67565b34801561012957600080fd5b5061013d6101383660046116e3565b610379565b005b34801561014b57600080fd5b5061013d61015a366004611677565b6104d9565b34801561016b57600080fd5b5061013d61017a366004611696565b6106b9565b34801561018b57600080fd5b506101946107c6565b6040516100c39190611ac0565b6101b46101af366004611677565b6107d5565b6040516100c39190611b59565b3480156101cd57600080fd5b5061013d6101dc3660046116e3565b610eef565b3480156101ed57600080fd5b506102016101fc366004611677565b6110fd565b6040516100c39190611cb0565b6001600160a01b0381166000908152600460209081526040808320805482518185028101850190935280835260609492939192909184015b8282101561032b576000848152602090819020604080516060810182526003860290920180546001600160a01b03168352600180820180548451600261010094831615949094026000190190911692909204601f8101879004870283018701909452838252939491938583019391929091908301828280156103095780601f106102de57610100808354040283529160200191610309565b820191906000526020600020905b8154815290600101906020018083116102ec57829003601f168201915b5050505050815260200160028201548152505081526020019060010190610246565b505050509050919050565b600160208181526000938452604080852090915291835291208054918101546002909101546001600160a01b039092169183565b6006546001600160a01b031681565b6040516323b872dd60e01b81526001600160a01b038416906323b872dd906103a990339030908790600401611ace565b600060405180830381600087803b1580156103c357600080fd5b505af11580156103d7573d6000803e3d6000fd5b505060005460405163443bb60560e01b81526001600160a01b03909116925063443bb605915061040f90869086908690600401611c41565b600060405180830381600087803b15801561042957600080fd5b505af115801561043d573d6000803e3d6000fd5b50506040805160608101825233815260208082018681526327b832b760e11b8385019081526001600160a01b038a8116600090815260018086528782208c8352909552869020945185546001600160a01b031916911617845590519183019190915551600291820155549051600080516020611e1e83398151915293506104cc92506000199190910190611ce6565b60405180910390a1505050565b60005460405163051a162160e21b81526001600160a01b039091169063146858849061050b9085908590600401611be9565b602060405180830381600087803b15801561052557600080fd5b505af1158015610539573d6000803e3d6000fd5b505050506040513d601f19601f8201168201806040525061055d9190810190611659565b50610566611333565b506001600160a01b038083166000908152600160208181526040808420868552825292839020835160608101855281549095168086529281015491850191909152600201549183019190915233146105d95760405162461bcd60e51b81526004016105d090611c60565b60405180910390fd5b80604001516327b832b760e11b146106035760405162461bcd60e51b81526004016105d090611c80565b80516040516323b872dd60e01b81526001600160a01b038516916323b872dd916106339130918790600401611b11565b600060405180830381600087803b15801561064d57600080fd5b505af1158015610661573d6000803e3d6000fd5b5050506001600160a01b0384166000908152600160209081526040808320868452909152908190206810d85b98d95b1b195960ba1b60029091015551600080516020611e1e83398151915291506104cc908490611ccc565b6106c1611333565b6106cb84846110fd565b905080604001516327b832b760e11b146106f75760405162461bcd60e51b81526004016105d090611c80565b610702848484611151565b6040516323b872dd60e01b81526001600160a01b038516906323b872dd9061073290309086908890600401611b11565b600060405180830381600087803b15801561074c57600080fd5b505af1158015610760573d6000803e3d6000fd5b5050506001600160a01b0385166000908152600160209081526040808320878452909152908190206810d85b98d95b1b195960ba1b60029091015551600080516020611e1e83398151915291506107b8908590611ccc565b60405180910390a150505050565b6005546001600160a01b031681565b60065460405163ba27d56f60e01b815260009182916001600160a01b039091169063ba27d56f9061080c9087908790600401611b1f565b60006040518083038186803b15801561082457600080fd5b505afa158015610838573d6000803e3d6000fd5b505050506040513d6000823e601f3d908101601f19168201604052610860919081019061175b565b509050803410156108835760405162461bcd60e51b81526004016105d090611ca0565b600654604051634a141b2960e01b81526060916001600160a01b031690634a141b29906108b69088908890600401611b75565b60006040518083038186803b1580156108ce57600080fd5b505afa1580156108e2573d6000803e3d6000fd5b505050506040513d6000823e601f3d908101601f1916820160405261090a9190810190611624565b905060008160018351038151811061091e57fe5b6020026020010151905060008190506000806000905084516001141561097057610960606461095488600a63ffffffff61118c16565b9063ffffffff6111cd16565b915061096b8261120f565b610a53565b610986606461095488600363ffffffff61118c16565b91506109918261120f565b6006546040516313184f3360e31b81526000916001600160a01b0316906398c27998906109c2908d90600401611b67565b60006040518083038186803b1580156109da57600080fd5b505afa1580156109ee573d6000803e3d6000fd5b505050506040513d6000823e601f3d908101601f19168201604052610a169190810190611726565b604001519050610a316064610954898463ffffffff61118c16565b9150610a5186600081518110610a4357fe5b602002602001015183611250565b505b6001600160a01b0383166108fc610a8084610a748a8663ffffffff61128e16565b9063ffffffff61128e16565b6040518115909202916000818181858888f19350505050158015610aa8573d6000803e3d6000fd5b5060405163095ea7b360e01b81526001600160a01b038a169063095ea7b390610ad79033908c90600401611af6565b600060405180830381600087803b158015610af157600080fd5b505af1158015610b05573d6000803e3d6000fd5b50506040516331a9108f60e11b8152600092506001600160a01b038c169150636352211e90610b38908c90600401611cbe565b60206040518083038186803b158015610b5057600080fd5b505afa158015610b64573d6000803e3d6000fd5b505050506040513d601f19601f82011682018060405250610b8891908101906115cc565b9050610b958a8a336106b9565b600654604051630f477e2f60e01b81526001600160a01b0390911690630f477e2f90610bc9908d908d903390600401611b83565b602060405180830381600087803b158015610be357600080fd5b505af1158015610bf7573d6000803e3d6000fd5b505050506040513d601f19601f82011682018060405250610c1b9190810190611659565b5060065460405163051a162160e21b81526001600160a01b0390911690631468588490610c4e908d908d90600401611be9565b602060405180830381600087803b158015610c6857600080fd5b505af1158015610c7c573d6000803e3d6000fd5b505050506040513d601f19601f82011682018060405250610ca09190810190611659565b506040516331a9108f60e11b81526000906001600160a01b038c1690636352211e90610cd0908d90600401611cbe565b60206040518083038186803b158015610ce857600080fd5b505afa158015610cfc573d6000803e3d6000fd5b505050506040513d601f19601f82011682018060405250610d2091908101906115cc565b9050610d2a611353565b6006546040516313184f3360e31b81526001600160a01b03909116906398c2799890610d5a908f90600401611b67565b60006040518083038186803b158015610d7257600080fd5b505afa158015610d86573d6000803e3d6000fd5b505050506040513d6000823e601f3d908101601f19168201604052610dae9190810190611726565b33600090815260046020908152604082208054600180820180845592855293839020855160039092020180546001600160a01b0319166001600160a01b03909216919091178155848301518051959650919486949193610e139392850192019061137d565b506040918201516002909101556006549051634d287f2b60e01b81526001600160a01b039091169150634d287f2b90610e50903390600401611ab2565b602060405180830381600087803b158015610e6a57600080fd5b505af1158015610e7e573d6000803e3d6000fd5b505050506040513d601f19601f82011682018060405250610ea29190810190611659565b507fbf5a309ffa40b9f297d9443d272a7f58059967521dac1b48001138d5e905832e8c8c8585604051610ed89493929190611bab565b60405180910390a150505050505050505092915050565b60005460405163051a162160e21b81526001600160a01b0390911690631468588490610f219086908690600401611c15565b602060405180830381600087803b158015610f3b57600080fd5b505af1158015610f4f573d6000803e3d6000fd5b505050506040513d601f19601f82011682018060405250610f739190810190611659565b50610f7c611333565b506001600160a01b03808416600090815260016020818152604080842087855282529283902083516060810185528154909516808652928101549185019190915260020154918301919091523314610fe65760405162461bcd60e51b81526004016105d090611c70565b60005460405163443bb60560e01b81526001600160a01b039091169063443bb6059061101a90879087908790600401611c41565b600060405180830381600087803b15801561103457600080fd5b505af1158015611048573d6000803e3d6000fd5b50506040516323b872dd60e01b81526001600160a01b03871692506323b872dd915061107c90339030908890600401611ace565b600060405180830381600087803b15801561109657600080fd5b505af11580156110aa573d6000803e3d6000fd5b5050506001600160a01b0385166000908152600160209081526040808320878452909152908190206327b832b760e11b60029091015551600080516020611e1e83398151915291506107b8908590611ce6565b611105611333565b506001600160a01b038083166000908152600160208181526040808420868552825292839020835160608101855281549095168552918201549084015260020154908201525b92915050565b6001600160a01b0392831660009081526001602090815260408083209483529390529190912080546001600160a01b03191691909216179055565b60008261119b5750600061114b565b828202828482816111a857fe5b04146111c65760405162461bcd60e51b81526004016105d090611c90565b9392505050565b60006111c683836040518060400160405280601a81526020017f536166654d6174683a206469766973696f6e206279207a65726f0000000000008152506112d0565b6003546040516001600160a01b0390911690819083156108fc029084906000818181858888f1935050505015801561124b573d6000803e3d6000fd5b505050565b60405182906001600160a01b0382169083156108fc029084906000818181858888f19350505050158015611288573d6000803e3d6000fd5b50505050565b60006111c683836040518060400160405280601e81526020017f536166654d6174683a207375627472616374696f6e206f766572666c6f770000815250611307565b600081836112f15760405162461bcd60e51b81526004016105d09190611c4f565b5060008385816112fd57fe5b0495945050505050565b6000818484111561132b5760405162461bcd60e51b81526004016105d09190611c4f565b505050900390565b604080516060810182526000808252602082018190529181019190915290565b604051806060016040528060006001600160a01b0316815260200160608152602001600081525090565b828054600181600116156101000203166002900490600052602060002090601f016020900481019282601f106113be57805160ff19168380011785556113eb565b828001600101855582156113eb579182015b828111156113eb5782518255916020019190600101906113d0565b506113f79291506113fb565b5090565b61141591905b808211156113f75760008155600101611401565b90565b803561114b81611deb565b805161114b81611deb565b600082601f83011261143f57600080fd5b815161145261144d82611d27565b611d00565b9150818183526020840193506020810190508385602084028201111561147757600080fd5b60005b838110156114a3578161148d8882611423565b845250602092830192919091019060010161147a565b5050505092915050565b805161114b81611e02565b803561114b81611e0b565b805161114b81611e0b565b600082601f8301126114df57600080fd5b81516114ed61144d82611d48565b9150808252602083016020830185838301111561150957600080fd5b611514838284611db5565b50505092915050565b60006060828403121561152f57600080fd5b6115396060611d00565b9050600061154784846114c3565b825250602082015167ffffffffffffffff81111561156457600080fd5b611570848285016114ce565b60208301525060406115848482850161159b565b60408301525092915050565b803561114b81611e14565b805161114b81611e14565b6000602082840312156115b857600080fd5b60006115c48484611418565b949350505050565b6000602082840312156115de57600080fd5b60006115c48484611423565b600080604083850312156115fd57600080fd5b60006116098585611418565b925050602061161a85828601611590565b9150509250929050565b60006020828403121561163657600080fd5b815167ffffffffffffffff81111561164d57600080fd5b6115c48482850161142e565b60006020828403121561166b57600080fd5b60006115c484846114ad565b6000806040838503121561168a57600080fd5b600061160985856114b8565b6000806000606084860312156116ab57600080fd5b60006116b786866114b8565b93505060206116c886828701611590565b92505060406116d986828701611418565b9150509250925092565b6000806000606084860312156116f857600080fd5b600061170486866114b8565b935050602061171586828701611590565b92505060406116d986828701611590565b60006020828403121561173857600080fd5b815167ffffffffffffffff81111561174f57600080fd5b6115c48482850161151d565b6000806040838503121561176e57600080fd5b600061177a858561159b565b925050602083015167ffffffffffffffff81111561179757600080fd5b61161a858286016114ce565b60006111c68383611a32565b6117b881611daa565b82525050565b6117b881611d83565b60006117d282611d76565b6117dc8185611d7a565b9350836020820285016117ee85611d70565b8060005b85811015611828578484038952815161180b85826117a3565b945061181683611d70565b60209a909a01999250506001016117f2565b5091979650505050505050565b6117b881611d8e565b6117b881611415565b6117b881611d93565b600061185b82611d76565b6118658185611d7a565b9350611875818560208601611db5565b61187e81611de1565b9093019392505050565b6000611895602683611d7a565b7f54726164652063616e2062652063616e63656c6c6564206f6e6c79206279207381526532b63632b91760d11b602082015260400192915050565b60006118dd602183611d7a565b7f54726164652063616e206265206f70656e206f6e6c792062792073656c6c65728152601760f91b602082015260400192915050565b6000611920601283611d7a565b712a3930b2329034b9903737ba1027b832b71760711b815260200192915050565b6810d85b98d95b1b195960ba1b9052565b600061195f600983611d7a565b6810d85b98d95b1b195960ba1b815260200192915050565b6327b832b760e11b9052565b6000611990600483611d7a565b6327b832b760e11b815260200192915050565b60006119b0602183611d7a565b7f536166654d6174683a206d756c7469706c69636174696f6e206f766572666c6f8152607760f81b602082015260400192915050565b60006119f3602a83611d7a565b7f6d73672e76616c75652073686f756c6420626520657175616c20746f2074686581526908189d5e505b5bdd5b9d60b21b602082015260400192915050565b80516000906060840190611a468582611847565b5060208301518482036020860152611a5e8282611850565b9150506040830151611a73604086018261183e565b509392505050565b80516060830190611a8c84826117be565b506020820151611a9f602085018261183e565b506040820151611288604085018261183e565b6020810161114b82846117af565b6020810161114b82846117be565b60608101611adc82866117af565b611ae960208301856117be565b6115c4604083018461183e565b60408101611b0482856117af565b6111c6602083018461183e565b60608101611adc82866117be565b60408101611b0482856117be565b60608101611b3b82866117be565b611ae9602083018561183e565b602080825281016111c681846117c7565b6020810161114b8284611835565b6020810161114b8284611847565b60408101611b048285611847565b60608101611b918286611847565b611b9e602083018561183e565b6115c460408301846117af565b60808101611bb98287611847565b611bc6602083018661183e565b611bd360408301856117be565b611be060608301846117be565b95945050505050565b60608101611bf78285611847565b611c04602083018461183e565b81810360408301526115c481611952565b60608101611c238285611847565b611c30602083018461183e565b81810360408301526115c481611983565b60608101611b3b8286611847565b602080825281016111c68184611850565b6020808252810161114b81611888565b6020808252810161114b816118d0565b6020808252810161114b81611913565b6020808252810161114b816119a3565b6020808252810161114b816119e6565b6060810161114b8284611a7b565b6020810161114b828461183e565b60408101611cda828461183e565b61114b60208301611941565b60408101611cf4828461183e565b61114b60208301611977565b60405181810167ffffffffffffffff81118282101715611d1f57600080fd5b604052919050565b600067ffffffffffffffff821115611d3e57600080fd5b5060209081020190565b600067ffffffffffffffff821115611d5f57600080fd5b506020601f91909101601f19160190565b60200190565b5190565b90815260200190565b600061114b82611d9e565b151590565b600061114b82611d83565b6001600160a01b031690565b600061114b82611d93565b60005b83811015611dd0578181015183820152602001611db8565b838111156112885750506000910152565b601f01601f191690565b611df481611d83565b8114611dff57600080fd5b50565b611df481611d8e565b611df481611d93565b611df48161141556fe4d38ed2c5ea671a5ccddc331f0ebebd94a60aaf6e572543497485d4d148f9edfa365627a7a723158207411737e8d5de7a4a27429f6cda78bc851c6ca4ed72c49b8bf7a106b2504de706c6578706572696d656e74616cf564736f6c63430005110040",
	"linkReferences": {},
	"deployedLinkReferences": {}
}