{
	"_format": "hh-sol-artifact-1",
	"contractName": "PrntNFTData",
	"sourceName": "contracts/PrntNFTData.sol",
	"abi": [
		{
			"inputs": [],
			"payable": false,
			"stateMutability": "nonpayable",
			"type": "constructor"
		},
		{
			"constant": false,
			"inputs": [
				{
					"internalType": "address",
					"name": "artist",
					"type": "address"
				}
			],
			"name": "addArtist",
			"outputs": [
				{
					"internalType": "bool",
					"name": "",
					"type": "bool"
				}
			],
			"payable": false,
			"stateMutability": "nonpayable",
			"type": "function"
		},
		{
			"constant": true,
			"inputs": [],
			"name": "getAllArtists",
			"outputs": [
				{
					"internalType": "address[]",
					"name": "",
					"type": "address[]"
				}
			],
			"payable": false,
			"stateMutability": "view",
			"type": "function"
		},
		{
			"constant": true,
			"inputs": [],
			"name": "getAllPrnts",
			"outputs": [
				{
					"components": [
						{
							"internalType": "contract PrntNFT",
							"name": "prntNFT",
							"type": "address"
						},
						{
							"internalType": "string",
							"name": "tokenUri",
							"type": "string"
						},
						{
							"internalType": "uint256",
							"name": "royalties",
							"type": "uint256"
						}
					],
					"internalType": "struct PrntNFTDataObjects.Prnt[]",
					"name": "_prnts",
					"type": "tuple[]"
				}
			],
			"payable": false,
			"stateMutability": "view",
			"type": "function"
		},
		{
			"constant": true,
			"inputs": [
				{
					"internalType": "contract PrntNFT",
					"name": "_prntNFT",
					"type": "address"
				},
				{
					"internalType": "uint256",
					"name": "_tokenId",
					"type": "uint256"
				}
			],
			"name": "getOwnerOfToken",
			"outputs": [
				{
					"internalType": "address[]",
					"name": "ownerAddress",
					"type": "address[]"
				}
			],
			"payable": false,
			"stateMutability": "view",
			"type": "function"
		},
		{
			"constant": true,
			"inputs": [
				{
					"internalType": "contract PrntNFT",
					"name": "prntNFT",
					"type": "address"
				}
			],
			"name": "getPrntByNFTAddress",
			"outputs": [
				{
					"components": [
						{
							"internalType": "contract PrntNFT",
							"name": "prntNFT",
							"type": "address"
						},
						{
							"internalType": "string",
							"name": "tokenUri",
							"type": "string"
						},
						{
							"internalType": "uint256",
							"name": "royalties",
							"type": "uint256"
						}
					],
					"internalType": "struct PrntNFTDataObjects.Prnt",
					"name": "_prnt",
					"type": "tuple"
				}
			],
			"payable": false,
			"stateMutability": "view",
			"type": "function"
		},
		{
			"constant": true,
			"inputs": [
				{
					"internalType": "contract PrntNFT",
					"name": "prntNFT",
					"type": "address"
				}
			],
			"name": "getPrntIndex",
			"outputs": [
				{
					"internalType": "uint256",
					"name": "_prntIndex",
					"type": "uint256"
				}
			],
			"payable": false,
			"stateMutability": "view",
			"type": "function"
		},
		{
			"constant": true,
			"inputs": [
				{
					"internalType": "uint256",
					"name": "",
					"type": "uint256"
				}
			],
			"name": "prntAddresses",
			"outputs": [
				{
					"internalType": "address",
					"name": "",
					"type": "address"
				}
			],
			"payable": false,
			"stateMutability": "view",
			"type": "function"
		},
		{
			"constant": true,
			"inputs": [
				{
					"internalType": "uint256",
					"name": "",
					"type": "uint256"
				}
			],
			"name": "prnts",
			"outputs": [
				{
					"internalType": "contract PrntNFT",
					"name": "prntNFT",
					"type": "address"
				},
				{
					"internalType": "string",
					"name": "tokenUri",
					"type": "string"
				},
				{
					"internalType": "uint256",
					"name": "royalties",
					"type": "uint256"
				}
			],
			"payable": false,
			"stateMutability": "view",
			"type": "function"
		},
		{
			"constant": false,
			"inputs": [
				{
					"internalType": "address[]",
					"name": "_prntAddresses",
					"type": "address[]"
				},
				{
					"internalType": "contract PrntNFT",
					"name": "_prntNFT",
					"type": "address"
				},
				{
					"internalType": "string",
					"name": "tokenUri",
					"type": "string"
				},
				{
					"internalType": "uint256",
					"name": "quantity",
					"type": "uint256"
				},
				{
					"internalType": "address",
					"name": "_ownerAddress",
					"type": "address"
				},
				{
					"internalType": "uint256",
					"name": "_prntPrice",
					"type": "uint256"
				},
				{
					"internalType": "uint256",
					"name": "royalties",
					"type": "uint256"
				}
			],
			"name": "saveMetadataOfPrntNFT",
			"outputs": [],
			"payable": false,
			"stateMutability": "nonpayable",
			"type": "function"
		},
		{
			"constant": true,
			"inputs": [
				{
					"internalType": "address",
					"name": "",
					"type": "address"
				},
				{
					"internalType": "uint256",
					"name": "",
					"type": "uint256"
				}
			],
			"name": "tokensByAddress",
			"outputs": [
				{
					"internalType": "uint256",
					"name": "prntPrice",
					"type": "uint256"
				},
				{
					"internalType": "string",
					"name": "status",
					"type": "string"
				}
			],
			"payable": false,
			"stateMutability": "view",
			"type": "function"
		},
		{
			"constant": false,
			"inputs": [
				{
					"internalType": "contract PrntNFT",
					"name": "_prntNFT",
					"type": "address"
				},
				{
					"internalType": "uint256",
					"name": "_tokenId",
					"type": "uint256"
				},
				{
					"internalType": "uint256",
					"name": "_prntPrice",
					"type": "uint256"
				}
			],
			"name": "updateNewPrntPriceForTrade",
			"outputs": [],
			"payable": false,
			"stateMutability": "nonpayable",
			"type": "function"
		},
		{
			"constant": false,
			"inputs": [
				{
					"internalType": "contract PrntNFT",
					"name": "_prntNFT",
					"type": "address"
				},
				{
					"internalType": "uint256",
					"name": "tokenId",
					"type": "uint256"
				},
				{
					"internalType": "address",
					"name": "_newOwner",
					"type": "address"
				}
			],
			"name": "updateOwnerOfPrntNFT",
			"outputs": [
				{
					"internalType": "bool",
					"name": "",
					"type": "bool"
				}
			],
			"payable": false,
			"stateMutability": "nonpayable",
			"type": "function"
		},
		{
			"constant": false,
			"inputs": [
				{
					"internalType": "contract PrntNFT",
					"name": "_prntNFT",
					"type": "address"
				},
				{
					"internalType": "uint256",
					"name": "tokenId",
					"type": "uint256"
				},
				{
					"internalType": "string",
					"name": "_newStatus",
					"type": "string"
				}
			],
			"name": "updateStatus",
			"outputs": [
				{
					"internalType": "bool",
					"name": "",
					"type": "bool"
				}
			],
			"payable": false,
			"stateMutability": "nonpayable",
			"type": "function"
		}
	],
	"bytecode": "0x608060405234801561001057600080fd5b5061130f806100206000396000f3fe608060405234801561001057600080fd5b50600436106100cf5760003560e01c80634a141b291161008c578063955f4fd711610066578063955f4fd7146101cd57806398c27998146101e2578063ba27d56f14610202578063f803ace314610223576100cf565b80634a141b291461017a5780634d287f2b1461019a57806370f5629b146101ad576100cf565b80630f477e2f146100d457806314685884146100fd5780631cefd29814610110578063203deabb1461013057806327052ccd14610145578063443bb60514610167575b600080fd5b6100e76100e2366004610e18565b61022b565b6040516100f49190611127565b60405180910390f35b6100e761010b366004610e65565b6102aa565b61012361011e366004610f03565b6102e6565b6040516100f491906110f7565b61014361013e366004610d10565b61030d565b005b610158610153366004610f03565b6104ce565b6040516100f493929190611135565b610143610175366004610ec0565b610598565b61018d610188366004610df9565b6105bc565b6040516100f49190611105565b6100e76101a8366004610cb0565b61063d565b6101c06101bb366004610ddb565b6106c6565b6040516100f49190611185565b6101d5610714565b6040516100f49190611116565b6101f56101f0366004610ddb565b610827565b6040516100f49190611174565b610215610210366004610cd6565b61096b565b6040516100f4929190611193565b61018d610a15565b60006001600160a01b03821661025c5760405162461bcd60e51b815260040161025390611164565b60405180910390fd5b6001600160a01b03938416600090815260208181526040808320958352948152938120600190810180549182018155825293902090920180546001600160a01b031916919093161790915590565b6001600160a01b0383166000908152602081815260408083208584528252822083516102de92600290920191850190610a7a565b509392505050565b600281815481106102f357fe5b6000918252602090912001546001600160a01b0316905081565b610315610af8565b6001600160a01b0387811682526020808301888152604084018590526001805480820180835560009290925285517fb10e2d527612073b26eecdfd717e6a320cf44b4afac2b0732d9fcbe2b7fa0cf6600390920291820180546001600160a01b03191691909616178555915180519194869490936103bb937fb10e2d527612073b26eecdfd717e6a320cf44b4afac2b0732d9fcbe2b7fa0cf79091019290910190610a7a565b50604091909101516002909101555060015b8581116104af576040805160608181018352868252602080830182815284518086018652600481526327b832b760e11b81840152848601526001600160a01b038d166000908152808352858120878252835294909420835181559351805192949261043e9260018501920190610b22565b506040820151805161045a916002840191602090910190610a7a565b505050506001600160a01b0388811660009081526020818152604080832085845282528220600190810180548083018255908452919092200180546001600160a01b03191692881692909217909155016103cd565b5087516104c39060029060208b0190610b22565b505050505050505050565b600181815481106104db57fe5b600091825260209182902060039091020180546001808301805460408051601f60026000199685161561010002969096019093169490940491820187900487028401870190528083526001600160a01b0390931695509293909291908301828280156105885780601f1061055d57610100808354040283529160200191610588565b820191906000526020600020905b81548152906001019060200180831161056b57829003601f168201915b5050505050908060020154905083565b6001600160a01b039092166000908152602081815260408083209383529290522055565b6001600160a01b03821660009081526020818152604080832084845282529182902060010180548351818402810184019094528084526060939283018282801561062f57602002820191906000526020600020905b81546001600160a01b03168152600190910190602001808311610611575b505050505090505b92915050565b6001600160a01b03811660009081526004602052604081205460ff166106c1576003805460018082019092557fc2575a0e9e593c00f959f8c92f12db2869c3395a3b0502d05e2516446f71f85b0180546001600160a01b0319166001600160a01b0385169081179091556000908152600460205260409020805460ff191690911790555b919050565b60008181805b6002548110156102de57826001600160a01b0316600282815481106106ed57fe5b6000918252602090912001546001600160a01b0316141561070c578091505b6001016106cc565b60606001805480602002602001604051908101604052809291908181526020016000905b8282101561081d576000848152602090819020604080516060810182526003860290920180546001600160a01b03168352600180820180548451600261010094831615949094026000190190911692909204601f8101879004870283018701909452838252939491938583019391929091908301828280156107fb5780601f106107d0576101008083540402835291602001916107fb565b820191906000526020600020905b8154815290600101906020018083116107de57829003601f168201915b5050505050815260200160028201548152505081526020019060010190610738565b5050505090505b90565b61082f610af8565b6000805b60025481101561087b57836001600160a01b03166002828154811061085457fe5b6000918252602090912001546001600160a01b03161415610873578091505b600101610833565b50610884610af8565b6001828154811061089157fe5b600091825260209182902060408051606081018252600390930290910180546001600160a01b03168352600180820180548451601f6002600019958416156101000295909501909216939093049081018790048702830187019094528382529394919385830193919290919083018282801561094e5780601f106109235761010080835404028352916020019161094e565b820191906000526020600020905b81548152906001019060200180831161093157829003601f168201915b505050918352505060029190910154602090910152949350505050565b600060208181529281526040808220845291815281902080546002808301805485516001821615610100026000190190911692909204601f8101879004870283018701909552848252919492939092830182828015610a0b5780601f106109e057610100808354040283529160200191610a0b565b820191906000526020600020905b8154815290600101906020018083116109ee57829003601f168201915b5050505050905082565b60606003600001805480602002602001604051908101604052809291908181526020018280548015610a7057602002820191906000526020600020905b81546001600160a01b03168152600190910190602001808311610a52575b5050505050905090565b828054600181600116156101000203166002900490600052602060002090601f016020900481019282601f10610abb57805160ff1916838001178555610ae8565b82800160010185558215610ae8579182015b82811115610ae8578251825591602001919060010190610acd565b50610af4929150610b83565b5090565b604051806060016040528060006001600160a01b0316815260200160608152602001600081525090565b828054828255906000526020600020908101928215610b77579160200282015b82811115610b7757825182546001600160a01b0319166001600160a01b03909116178255602090920191600190910190610b42565b50610af4929150610b9d565b61082491905b80821115610af45760008155600101610b89565b61082491905b80821115610af45780546001600160a01b0319168155600101610ba3565b8035610637816112a3565b600082601f830112610bdd57600080fd5b8135610bf0610beb826111da565b6111b3565b91508181835260208401935060208101905083856020840282011115610c1557600080fd5b60005b83811015610c415781610c2b8882610bc1565b8452506020928301929190910190600101610c18565b5050505092915050565b8035610637816112ba565b600082601f830112610c6757600080fd5b8135610c75610beb826111fb565b91508082526020830160208301858383011115610c9157600080fd5b610c9c83828461125d565b50505092915050565b8035610637816112c3565b600060208284031215610cc257600080fd5b6000610cce8484610bc1565b949350505050565b60008060408385031215610ce957600080fd5b6000610cf58585610bc1565b9250506020610d0685828601610ca5565b9150509250929050565b600080600080600080600060e0888a031215610d2b57600080fd5b873567ffffffffffffffff811115610d4257600080fd5b610d4e8a828b01610bcc565b9750506020610d5f8a828b01610c4b565b965050604088013567ffffffffffffffff811115610d7c57600080fd5b610d888a828b01610c56565b9550506060610d998a828b01610ca5565b9450506080610daa8a828b01610bc1565b93505060a0610dbb8a828b01610ca5565b92505060c0610dcc8a828b01610ca5565b91505092959891949750929550565b600060208284031215610ded57600080fd5b6000610cce8484610c4b565b60008060408385031215610e0c57600080fd5b6000610cf58585610c4b565b600080600060608486031215610e2d57600080fd5b6000610e398686610c4b565b9350506020610e4a86828701610ca5565b9250506040610e5b86828701610bc1565b9150509250925092565b600080600060608486031215610e7a57600080fd5b6000610e868686610c4b565b9350506020610e9786828701610ca5565b925050604084013567ffffffffffffffff811115610eb457600080fd5b610e5b86828701610c56565b600080600060608486031215610ed557600080fd5b6000610ee18686610c4b565b9350506020610ef286828701610ca5565b9250506040610e5b86828701610ca5565b600060208284031215610f1557600080fd5b6000610cce8484610ca5565b6000610f2d8383610f48565b505060200190565b6000610f4183836110b1565b9392505050565b610f5181611236565b82525050565b6000610f6282611229565b610f6c818561122d565b9350610f7783611223565b8060005b83811015610fa5578151610f8f8882610f21565b9750610f9a83611223565b925050600101610f7b565b509495945050505050565b6000610fbb82611229565b610fc5818561122d565b935083602082028501610fd785611223565b8060005b858110156110115784840389528151610ff48582610f35565b9450610fff83611223565b60209a909a0199925050600101610fdb565b5091979650505050505050565b610f5181611241565b610f5181611246565b600061103b82611229565b611045818561122d565b9350611055818560208601611269565b61105e81611299565b9093019392505050565b600061107560278361122d565b7f41206e6577206f776e657220616464726573732073686f756c64206265206e6f8152667420656d70747960c81b602082015260400192915050565b805160009060608401906110c58582611027565b50602083015184820360208601526110dd8282611030565b91505060408301516102de60408601825b610f5181610824565b602081016106378284610f48565b60208082528101610f418184610f57565b60208082528101610f418184610fb0565b60208101610637828461101e565b606081016111438286611027565b81810360208301526111558185611030565b9050610cce60408301846110ee565b6020808252810161063781611068565b60208082528101610f4181846110b1565b6020810161063782846110ee565b604081016111a182856110ee565b8181036020830152610cce8184611030565b60405181810167ffffffffffffffff811182821017156111d257600080fd5b604052919050565b600067ffffffffffffffff8211156111f157600080fd5b5060209081020190565b600067ffffffffffffffff82111561121257600080fd5b506020601f91909101601f19160190565b60200190565b5190565b90815260200190565b600061063782611251565b151590565b600061063782611236565b6001600160a01b031690565b82818337506000910152565b60005b8381101561128457818101518382015260200161126c565b83811115611293576000848401525b50505050565b601f01601f191690565b6112ac81611236565b81146112b757600080fd5b50565b6112ac81611246565b6112ac8161082456fea365627a7a7231582013c1805268bbe125b8865d2a89bb0d6dbaeb7f52ca5f073ab66d79e455bf0a6e6c6578706572696d656e74616cf564736f6c63430005110040",
	"linkReferences": {},
	"deployedLinkReferences": {}
}