{
    "_format": "hh-sol-artifact-1",
    "contractName": "PrntNFT",
    "sourceName": "contracts/PrntNFT.sol",
    "abi": [
        {
            "inputs": [
                {
                    "internalType": "address",
                    "name": "owner",
                    "type": "address"
                },
                {
                    "internalType": "string",
                    "name": "_nftName",
                    "type": "string"
                },
                {
                    "internalType": "string",
                    "name": "_nftSymbol",
                    "type": "string"
                },
                {
                    "internalType": "string",
                    "name": "_tokenURI",
                    "type": "string"
                },
                {
                    "internalType": "uint256",
                    "name": "quantity",
                    "type": "uint256"
                }
            ],
            "payable": false,
            "stateMutability": "nonpayable",
            "type": "constructor"
        },
        {
            "anonymous": false,
            "inputs": [
                {
                    "indexed": true,
                    "internalType": "address",
                    "name": "owner",
                    "type": "address"
                },
                {
                    "indexed": true,
                    "internalType": "address",
                    "name": "approved",
                    "type": "address"
                },
                {
                    "indexed": true,
                    "internalType": "uint256",
                    "name": "tokenId",
                    "type": "uint256"
                }
            ],
            "name": "Approval",
            "type": "event"
        },
        {
            "anonymous": false,
            "inputs": [
                {
                    "indexed": true,
                    "internalType": "address",
                    "name": "owner",
                    "type": "address"
                },
                {
                    "indexed": true,
                    "internalType": "address",
                    "name": "operator",
                    "type": "address"
                },
                {
                    "indexed": false,
                    "internalType": "bool",
                    "name": "approved",
                    "type": "bool"
                }
            ],
            "name": "ApprovalForAll",
            "type": "event"
        },
        {
            "anonymous": false,
            "inputs": [
                {
                    "indexed": true,
                    "internalType": "address",
                    "name": "from",
                    "type": "address"
                },
                {
                    "indexed": true,
                    "internalType": "address",
                    "name": "to",
                    "type": "address"
                },
                {
                    "indexed": true,
                    "internalType": "uint256",
                    "name": "tokenId",
                    "type": "uint256"
                }
            ],
            "name": "Transfer",
            "type": "event"
        },
        {
            "constant": false,
            "inputs": [
                {
                    "internalType": "address",
                    "name": "to",
                    "type": "address"
                },
                {
                    "internalType": "uint256",
                    "name": "tokenId",
                    "type": "uint256"
                }
            ],
            "name": "approve",
            "outputs": [],
            "payable": false,
            "stateMutability": "nonpayable",
            "type": "function"
        },
        {
            "constant": true,
            "inputs": [
                {
                    "internalType": "address",
                    "name": "owner",
                    "type": "address"
                }
            ],
            "name": "balanceOf",
            "outputs": [
                {
                    "internalType": "uint256",
                    "name": "",
                    "type": "uint256"
                }
            ],
            "payable": false,
            "stateMutability": "view",
            "type": "function"
        },
        {
            "constant": true,
            "inputs": [],
            "name": "baseURI",
            "outputs": [
                {
                    "internalType": "string",
                    "name": "",
                    "type": "string"
                }
            ],
            "payable": false,
            "stateMutability": "view",
            "type": "function"
        },
        {
            "constant": true,
            "inputs": [
                {
                    "internalType": "uint256",
                    "name": "tokenId",
                    "type": "uint256"
                }
            ],
            "name": "getApproved",
            "outputs": [
                {
                    "internalType": "address",
                    "name": "",
                    "type": "address"
                }
            ],
            "payable": false,
            "stateMutability": "view",
            "type": "function"
        },
        {
            "constant": true,
            "inputs": [
                {
                    "internalType": "address",
                    "name": "owner",
                    "type": "address"
                },
                {
                    "internalType": "address",
                    "name": "operator",
                    "type": "address"
                }
            ],
            "name": "isApprovedForAll",
            "outputs": [
                {
                    "internalType": "bool",
                    "name": "",
                    "type": "bool"
                }
            ],
            "payable": false,
            "stateMutability": "view",
            "type": "function"
        },
        {
            "constant": false,
            "inputs": [
                {
                    "internalType": "address",
                    "name": "to",
                    "type": "address"
                },
                {
                    "internalType": "uint256",
                    "name": "tokenId",
                    "type": "uint256"
                },
                {
                    "internalType": "string",
                    "name": "tokenURI",
                    "type": "string"
                }
            ],
            "name": "mint",
            "outputs": [
                {
                    "internalType": "bool",
                    "name": "",
                    "type": "bool"
                }
            ],
            "payable": false,
            "stateMutability": "nonpayable",
            "type": "function"
        },
        {
            "constant": true,
            "inputs": [],
            "name": "name",
            "outputs": [
                {
                    "internalType": "string",
                    "name": "",
                    "type": "string"
                }
            ],
            "payable": false,
            "stateMutability": "view",
            "type": "function"
        },
        {
            "constant": true,
            "inputs": [
                {
                    "internalType": "uint256",
                    "name": "tokenId",
                    "type": "uint256"
                }
            ],
            "name": "ownerOf",
            "outputs": [
                {
                    "internalType": "address",
                    "name": "",
                    "type": "address"
                }
            ],
            "payable": false,
            "stateMutability": "view",
            "type": "function"
        },
        {
            "constant": false,
            "inputs": [
                {
                    "internalType": "address",
                    "name": "from",
                    "type": "address"
                },
                {
                    "internalType": "address",
                    "name": "to",
                    "type": "address"
                },
                {
                    "internalType": "uint256",
                    "name": "tokenId",
                    "type": "uint256"
                }
            ],
            "name": "safeTransferFrom",
            "outputs": [],
            "payable": false,
            "stateMutability": "nonpayable",
            "type": "function"
        },
        {
            "constant": false,
            "inputs": [
                {
                    "internalType": "address",
                    "name": "from",
                    "type": "address"
                },
                {
                    "internalType": "address",
                    "name": "to",
                    "type": "address"
                },
                {
                    "internalType": "uint256",
                    "name": "tokenId",
                    "type": "uint256"
                },
                {
                    "internalType": "bytes",
                    "name": "_data",
                    "type": "bytes"
                }
            ],
            "name": "safeTransferFrom",
            "outputs": [],
            "payable": false,
            "stateMutability": "nonpayable",
            "type": "function"
        },
        {
            "constant": false,
            "inputs": [
                {
                    "internalType": "address",
                    "name": "to",
                    "type": "address"
                },
                {
                    "internalType": "bool",
                    "name": "approved",
                    "type": "bool"
                }
            ],
            "name": "setApprovalForAll",
            "outputs": [],
            "payable": false,
            "stateMutability": "nonpayable",
            "type": "function"
        },
        {
            "constant": true,
            "inputs": [
                {
                    "internalType": "bytes4",
                    "name": "interfaceId",
                    "type": "bytes4"
                }
            ],
            "name": "supportsInterface",
            "outputs": [
                {
                    "internalType": "bool",
                    "name": "",
                    "type": "bool"
                }
            ],
            "payable": false,
            "stateMutability": "view",
            "type": "function"
        },
        {
            "constant": true,
            "inputs": [],
            "name": "symbol",
            "outputs": [
                {
                    "internalType": "string",
                    "name": "",
                    "type": "string"
                }
            ],
            "payable": false,
            "stateMutability": "view",
            "type": "function"
        },
        {
            "constant": true,
            "inputs": [
                {
                    "internalType": "uint256",
                    "name": "index",
                    "type": "uint256"
                }
            ],
            "name": "tokenByIndex",
            "outputs": [
                {
                    "internalType": "uint256",
                    "name": "",
                    "type": "uint256"
                }
            ],
            "payable": false,
            "stateMutability": "view",
            "type": "function"
        },
        {
            "constant": true,
            "inputs": [
                {
                    "internalType": "address",
                    "name": "owner",
                    "type": "address"
                },
                {
                    "internalType": "uint256",
                    "name": "index",
                    "type": "uint256"
                }
            ],
            "name": "tokenOfOwnerByIndex",
            "outputs": [
                {
                    "internalType": "uint256",
                    "name": "",
                    "type": "uint256"
                }
            ],
            "payable": false,
            "stateMutability": "view",
            "type": "function"
        },
        {
            "constant": true,
            "inputs": [
                {
                    "internalType": "uint256",
                    "name": "tokenId",
                    "type": "uint256"
                }
            ],
            "name": "tokenURI",
            "outputs": [
                {
                    "internalType": "string",
                    "name": "",
                    "type": "string"
                }
            ],
            "payable": false,
            "stateMutability": "view",
            "type": "function"
        },
        {
            "constant": true,
            "inputs": [],
            "name": "totalSupply",
            "outputs": [
                {
                    "internalType": "uint256",
                    "name": "",
                    "type": "uint256"
                }
            ],
            "payable": false,
            "stateMutability": "view",
            "type": "function"
        },
        {
            "constant": false,
            "inputs": [
                {
                    "internalType": "address",
                    "name": "from",
                    "type": "address"
                },
                {
                    "internalType": "address",
                    "name": "to",
                    "type": "address"
                },
                {
                    "internalType": "uint256",
                    "name": "tokenId",
                    "type": "uint256"
                }
            ],
            "name": "transferFrom",
            "outputs": [],
            "payable": false,
            "stateMutability": "nonpayable",
            "type": "function"
        }
    ],
    "bytecode": "0x60806040523480156200001157600080fd5b5060405162002433380380620024338339810160408190526200003491620004e3565b83838181620000536301ffc9a760e01b6001600160e01b036200010c16565b6200006e6380ac58cd60e01b6001600160e01b036200010c16565b6200008963780e9d6360e01b6001600160e01b036200010c16565b81516200009e906009906020850190620003c2565b508051620000b490600a906020840190620003c2565b50620000d0635b5e139f60e01b6001600160e01b036200010c16565b506001925050505b8181116200010057620000f68682856001600160e01b036200016716565b50600101620000d8565b505050505050620007b6565b6001600160e01b03198082161415620001425760405162461bcd60e51b81526004016200013990620006ac565b60405180910390fd5b6001600160e01b0319166000908152602081905260409020805460ff19166001179055565b60006200017e84846001600160e01b036200019a16565b6200019383836001600160e01b03620001de16565b9392505050565b620001b182826200023760201b62000def1760201c565b620001c682826001600160e01b036200031a16565b620001da816001600160e01b036200035816565b5050565b620001f2826001600160e01b036200039c16565b620002115760405162461bcd60e51b81526004016200013990620006e2565b6000828152600c6020908152604090912082516200023292840190620003c2565b505050565b6001600160a01b038216620002605760405162461bcd60e51b81526004016200013990620006d0565b62000274816001600160e01b036200039c16565b15620002945760405162461bcd60e51b81526004016200013990620006be565b600081815260016020908152604080832080546001600160a01b0319166001600160a01b038716908117909155835260038252909120620002de91620003b9811b62000f4e17901c565b60405181906001600160a01b038416906000907fddf252ad1be2c89b69c2b068fc378daa952ba7f163c4a11628f55a4df523b3ef908290a45050565b6001600160a01b0390911660009081526005602081815260408084208054868652600684529185208290559282526001810183559183529091200155565b600780546000838152600860205260408120829055600182018355919091527fa66cc928b5edb82af9bd49922954155ab7b0942694bea4ce44661d9a8736c6880155565b6000908152600160205260409020546001600160a01b0316151590565b80546001019055565b828054600181600116156101000203166002900490600052602060002090601f016020900481019282601f106200040557805160ff191683800117855562000435565b8280016001018555821562000435579182015b828111156200043557825182559160200191906001019062000418565b506200044392915062000447565b5090565b6200046491905b808211156200044357600081556001016200044e565b90565b8051620004748162000791565b92915050565b600082601f8301126200048c57600080fd5b8151620004a36200049d826200071b565b620006f4565b91508082526020830160208301858383011115620004c057600080fd5b620004cd8382846200075e565b50505092915050565b80516200047481620007ab565b600080600080600060a08688031215620004fc57600080fd5b60006200050a888862000467565b95505060208601516001600160401b038111156200052757600080fd5b62000535888289016200047a565b94505060408601516001600160401b038111156200055257600080fd5b62000560888289016200047a565b93505060608601516001600160401b038111156200057d57600080fd5b6200058b888289016200047a565b92505060806200059e88828901620004d6565b9150509295509295909350565b6000620005ba601c8362000743565b7f4552433136353a20696e76616c696420696e7465726661636520696400000000815260200192915050565b6000620005f5601c8362000743565b7f4552433732313a20746f6b656e20616c7265616479206d696e74656400000000815260200192915050565b60006200063060208362000743565b7f4552433732313a206d696e7420746f20746865207a65726f2061646472657373815260200192915050565b60006200066b602c8362000743565b7f4552433732314d657461646174613a2055524920736574206f66206e6f6e657881526b34b9ba32b73a103a37b5b2b760a11b602082015260400192915050565b602080825281016200047481620005ab565b602080825281016200047481620005e6565b60208082528101620004748162000621565b6020808252810162000474816200065c565b6040518181016001600160401b03811182821017156200071357600080fd5b604052919050565b60006001600160401b038211156200073257600080fd5b506020601f91909101601f19160190565b90815260200190565b60006001600160a01b03821662000474565b60005b838110156200077b57818101518382015260200162000761565b838111156200078b576000848401525b50505050565b6200079c816200074c565b8114620007a857600080fd5b50565b6200079c8162000464565b611c6d80620007c66000396000f3fe608060405234801561001057600080fd5b50600436106101165760003560e01c80636352211e116100a2578063a22cb46511610071578063a22cb46514610225578063b88d4fde14610238578063c87b56dd1461024b578063d3fc98641461025e578063e985e9c51461027157610116565b80636352211e146101ef5780636c0360eb1461020257806370a082311461020a57806395d89b411461021d57610116565b806318160ddd116100e957806318160ddd1461018e57806323b872dd146101a35780632f745c59146101b657806342842e0e146101c95780634f6ccce7146101dc57610116565b806301ffc9a71461011b57806306fdde0314610144578063081812fc14610159578063095ea7b314610179575b600080fd5b61012e61012936600461131a565b610284565b60405161013b91906119eb565b60405180910390f35b61014c6102a7565b60405161013b91906119f9565b61016c610167366004611356565b61033e565b60405161013b9190611999565b61018c61018736600461128f565b61038a565b005b61019661046f565b60405161013b9190611b1a565b61018c6101b1366004611199565b610475565b6101966101c436600461128f565b6104b2565b61018c6101d7366004611199565b610513565b6101966101ea366004611356565b61052e565b61016c6101fd366004611356565b610575565b61014c6105aa565b610196610218366004611141565b61060b565b61014c610654565b61018c61023336600461125f565b6106b5565b61018c6102463660046111e6565b610783565b61014c610259366004611356565b6107c2565b61012e61026c3660046112bf565b6108d0565b61012e61027f36600461115f565b6108ed565b6001600160e01b0319811660009081526020819052604090205460ff165b919050565b60098054604080516020601f60026000196101006001881615020190951694909404938401819004810282018101909252828152606093909290918301828280156103335780601f1061030857610100808354040283529160200191610333565b820191906000526020600020905b81548152906001019060200180831161031657829003601f168201915b505050505090505b90565b60006103498261091b565b61036e5760405162461bcd60e51b815260040161036590611aaa565b60405180910390fd5b506000908152600260205260409020546001600160a01b031690565b600061039582610575565b9050806001600160a01b0316836001600160a01b031614156103c95760405162461bcd60e51b815260040161036590611aea565b806001600160a01b03166103db610938565b6001600160a01b031614806103f757506103f78161027f610938565b6104135760405162461bcd60e51b815260040161036590611a6a565b60008281526002602052604080822080546001600160a01b0319166001600160a01b0387811691821790925591518593918516917f8c5be1e5ebec7d5bd14f71427d1e84f3dd0314c0f7b2291e5b200ac8c7c3b92591a4505050565b60075490565b610486610480610938565b8261093c565b6104a25760405162461bcd60e51b815260040161036590611afa565b6104ad8383836109c1565b505050565b60006104bd8361060b565b82106104db5760405162461bcd60e51b815260040161036590611a0a565b6001600160a01b03831660009081526005602052604090208054839081106104ff57fe5b906000526020600020015490505b92915050565b6104ad83838360405180602001604052806000815250610783565b600061053861046f565b82106105565760405162461bcd60e51b815260040161036590611b0a565b6007828154811061056357fe5b90600052602060002001549050919050565b6000818152600160205260408120546001600160a01b03168061050d5760405162461bcd60e51b815260040161036590611a8a565b600b8054604080516020601f60026000196101006001881615020190951694909404938401819004810282018101909252828152606093909290918301828280156103335780601f1061030857610100808354040283529160200191610333565b60006001600160a01b0382166106335760405162461bcd60e51b815260040161036590611a7a565b6001600160a01b038216600090815260036020526040902061050d906109e0565b600a8054604080516020601f60026000196101006001881615020190951694909404938401819004810282018101909252828152606093909290918301828280156103335780601f1061030857610100808354040283529160200191610333565b6106bd610938565b6001600160a01b0316826001600160a01b031614156106ee5760405162461bcd60e51b815260040161036590611a4a565b80600460006106fb610938565b6001600160a01b03908116825260208083019390935260409182016000908120918716808252919093529120805460ff19169215159290921790915561073f610938565b6001600160a01b03167f17307eab39ab6107e8899845ad3d59bd9653f200f220920489ca2b5937696c318360405161077791906119eb565b60405180910390a35050565b61079461078e610938565b8361093c565b6107b05760405162461bcd60e51b815260040161036590611afa565b6107bc848484846109e4565b50505050565b60606107cd8261091b565b6107e95760405162461bcd60e51b815260040161036590611ada565b6000828152600c602090815260409182902080548351601f600260001961010060018616150201909316929092049182018490048402810184019094528084526060939283018282801561087e5780601f106108535761010080835404028352916020019161087e565b820191906000526020600020905b81548152906001019060200180831161086157829003601f168201915b505050505090508051600014156108a55750506040805160208101909152600081526102a2565b600b816040516020016108b9929190611981565b6040516020818303038152906040529150506102a2565b60006108dc8484610a17565b6108e68383610a38565b9392505050565b6001600160a01b03918216600090815260046020908152604080832093909416825291909152205460ff1690565b6000908152600160205260409020546001600160a01b0316151590565b3390565b60006109478261091b565b6109635760405162461bcd60e51b815260040161036590611a5a565b600061096e83610575565b9050806001600160a01b0316846001600160a01b031614806109a95750836001600160a01b031661099e8461033e565b6001600160a01b0316145b806109b957506109b981856108ed565b949350505050565b6109cc838383610a7c565b6109d68382610b82565b6104ad8282610c77565b5490565b6109ef8484846109c1565b6109fb84848484610cb5565b6107bc5760405162461bcd60e51b815260040161036590611a1a565b610a218282610def565b610a2b8282610c77565b610a3481610eb6565b5050565b610a418261091b565b610a5d5760405162461bcd60e51b815260040161036590611aba565b6000828152600c6020908152604090912082516104ad92840190610ffe565b826001600160a01b0316610a8f82610575565b6001600160a01b031614610ab55760405162461bcd60e51b815260040161036590611aca565b6001600160a01b038216610adb5760405162461bcd60e51b815260040161036590611a3a565b610ae481610efa565b6001600160a01b0383166000908152600360205260409020610b0590610f37565b6001600160a01b0382166000908152600360205260409020610b2690610f4e565b60008181526001602052604080822080546001600160a01b0319166001600160a01b0386811691821790925591518493918716917fddf252ad1be2c89b69c2b068fc378daa952ba7f163c4a11628f55a4df523b3ef91a4505050565b6001600160a01b038216600090815260056020526040812054610bac90600163ffffffff610f5716565b600083815260066020526040902054909150808214610c47576001600160a01b0384166000908152600560205260408120805484908110610be957fe5b906000526020600020015490508060056000876001600160a01b03166001600160a01b031681526020019081526020016000208381548110610c2757fe5b600091825260208083209091019290925591825260069052604090208190555b6001600160a01b0384166000908152600560205260409020805490610c7090600019830161107c565b5050505050565b6001600160a01b0390911660009081526005602081815260408084208054868652600684529185208290559282526001810183559183529091200155565b6000610cc9846001600160a01b0316610f99565b610cd5575060016109b9565b600060606001600160a01b038616630a85bd0160e11b610cf3610938565b898888604051602401610d0994939291906119a7565b60408051601f198184030181529181526020820180516001600160e01b03166001600160e01b0319909416939093179092529051610d479190611975565b6000604051808303816000865af19150503d8060008114610d84576040519150601f19603f3d011682016040523d82523d6000602084013e610d89565b606091505b509150915081610dbb57805115610da35780518082602001fd5b60405162461bcd60e51b815260040161036590611a1a565b600081806020019051610dd19190810190611338565b6001600160e01b031916630a85bd0160e11b1493506109b992505050565b6001600160a01b038216610e155760405162461bcd60e51b815260040161036590611a9a565b610e1e8161091b565b15610e3b5760405162461bcd60e51b815260040161036590611a2a565b600081815260016020908152604080832080546001600160a01b0319166001600160a01b038716908117909155835260039091529020610e7a90610f4e565b60405181906001600160a01b038416906000907fddf252ad1be2c89b69c2b068fc378daa952ba7f163c4a11628f55a4df523b3ef908290a45050565b600780546000838152600860205260408120829055600182018355919091527fa66cc928b5edb82af9bd49922954155ab7b0942694bea4ce44661d9a8736c6880155565b6000818152600260205260409020546001600160a01b031615610f3457600081815260026020526040902080546001600160a01b03191690555b50565b8054610f4a90600163ffffffff610f5716565b9055565b80546001019055565b60006108e683836040518060400160405280601e81526020017f536166654d6174683a207375627472616374696f6e206f766572666c6f770000815250610fd2565b6000813f7fc5d2460186f7233c927e7db2dcc703c0e500b653ca82273b7bfad8045d85a4708181148015906109b9575050151592915050565b60008184841115610ff65760405162461bcd60e51b815260040161036591906119f9565b505050900390565b828054600181600116156101000203166002900490600052602060002090601f016020900481019282601f1061103f57805160ff191683800117855561106c565b8280016001018555821561106c579182015b8281111561106c578251825591602001919060010190611051565b5061107892915061109c565b5090565b8154818355818111156104ad576000838152602090206104ad9181019083015b61033b91905b8082111561107857600081556001016110a2565b803561050d81611bfb565b803561050d81611c0f565b803561050d81611c18565b805161050d81611c18565b600082601f8301126110f357600080fd5b813561110661110182611b4f565b611b28565b9150808252602083016020830185838301111561112257600080fd5b61112d838284611bb9565b50505092915050565b803561050d81611c21565b60006020828403121561115357600080fd5b60006109b984846110b6565b6000806040838503121561117257600080fd5b600061117e85856110b6565b925050602061118f858286016110b6565b9150509250929050565b6000806000606084860312156111ae57600080fd5b60006111ba86866110b6565b93505060206111cb868287016110b6565b92505060406111dc86828701611136565b9150509250925092565b600080600080608085870312156111fc57600080fd5b600061120887876110b6565b9450506020611219878288016110b6565b935050604061122a87828801611136565b925050606085013567ffffffffffffffff81111561124757600080fd5b611253878288016110e2565b91505092959194509250565b6000806040838503121561127257600080fd5b600061127e85856110b6565b925050602061118f858286016110c1565b600080604083850312156112a257600080fd5b60006112ae85856110b6565b925050602061118f85828601611136565b6000806000606084860312156112d457600080fd5b60006112e086866110b6565b93505060206112f186828701611136565b925050604084013567ffffffffffffffff81111561130e57600080fd5b6111dc868287016110e2565b60006020828403121561132c57600080fd5b60006109b984846110cc565b60006020828403121561134a57600080fd5b60006109b984846110d7565b60006020828403121561136857600080fd5b60006109b98484611136565b61137d81611b90565b82525050565b61137d81611b9b565b600061139782611b83565b6113a18185611b87565b93506113b1818560208601611bc5565b6113ba81611bf1565b9093019392505050565b60006113cf82611b83565b6113d981856102a2565b93506113e9818560208601611bc5565b9290920192915050565b600081546001811660008114611410576001811461143357611472565b607f600283041661142181876102a2565b60ff1984168152955085019250611472565b6002820461144181876102a2565b955061144c85611b77565b60005b8281101561146b5781548882015260019091019060200161144f565b5050850192505b505092915050565b6000611487602b83611b87565b7f455243373231456e756d657261626c653a206f776e657220696e646578206f7581526a74206f6620626f756e647360a81b602082015260400192915050565b60006114d4603283611b87565b7f4552433732313a207472616e7366657220746f206e6f6e20455243373231526581527131b2b4bb32b91034b6b83632b6b2b73a32b960711b602082015260400192915050565b6000611528601c83611b87565b7f4552433732313a20746f6b656e20616c7265616479206d696e74656400000000815260200192915050565b6000611561602483611b87565b7f4552433732313a207472616e7366657220746f20746865207a65726f206164648152637265737360e01b602082015260400192915050565b60006115a7601983611b87565b7f4552433732313a20617070726f766520746f2063616c6c657200000000000000815260200192915050565b60006115e0602c83611b87565b7f4552433732313a206f70657261746f7220717565727920666f72206e6f6e657881526b34b9ba32b73a103a37b5b2b760a11b602082015260400192915050565b600061162e603883611b87565b7f4552433732313a20617070726f76652063616c6c6572206973206e6f74206f7781527f6e6572206e6f7220617070726f76656420666f7220616c6c0000000000000000602082015260400192915050565b600061168d602a83611b87565b7f4552433732313a2062616c616e636520717565727920666f7220746865207a65815269726f206164647265737360b01b602082015260400192915050565b60006116d9602983611b87565b7f4552433732313a206f776e657220717565727920666f72206e6f6e657869737481526832b73a103a37b5b2b760b91b602082015260400192915050565b6000611724602083611b87565b7f4552433732313a206d696e7420746f20746865207a65726f2061646472657373815260200192915050565b600061175d602c83611b87565b7f4552433732313a20617070726f76656420717565727920666f72206e6f6e657881526b34b9ba32b73a103a37b5b2b760a11b602082015260400192915050565b60006117ab602c83611b87565b7f4552433732314d657461646174613a2055524920736574206f66206e6f6e657881526b34b9ba32b73a103a37b5b2b760a11b602082015260400192915050565b60006117f9602983611b87565b7f4552433732313a207472616e73666572206f6620746f6b656e2074686174206981526839903737ba1037bbb760b91b602082015260400192915050565b6000611844602f83611b87565b7f4552433732314d657461646174613a2055524920717565727920666f72206e6f81526e3732bc34b9ba32b73a103a37b5b2b760891b602082015260400192915050565b6000611895602183611b87565b7f4552433732313a20617070726f76616c20746f2063757272656e74206f776e658152603960f91b602082015260400192915050565b60006118d8603183611b87565b7f4552433732313a207472616e736665722063616c6c6572206973206e6f74206f8152701ddb995c881b9bdc88185c1c1c9bdd9959607a1b602082015260400192915050565b600061192b602c83611b87565b7f455243373231456e756d657261626c653a20676c6f62616c20696e646578206f81526b7574206f6620626f756e647360a01b602082015260400192915050565b61137d8161033b565b60006108e682846113c4565b600061198d82856113f3565b91506109b982846113c4565b6020810161050d8284611374565b608081016119b58287611374565b6119c26020830186611374565b6119cf604083018561196c565b81810360608301526119e1818461138c565b9695505050505050565b6020810161050d8284611383565b602080825281016108e6818461138c565b6020808252810161050d8161147a565b6020808252810161050d816114c7565b6020808252810161050d8161151b565b6020808252810161050d81611554565b6020808252810161050d8161159a565b6020808252810161050d816115d3565b6020808252810161050d81611621565b6020808252810161050d81611680565b6020808252810161050d816116cc565b6020808252810161050d81611717565b6020808252810161050d81611750565b6020808252810161050d8161179e565b6020808252810161050d816117ec565b6020808252810161050d81611837565b6020808252810161050d81611888565b6020808252810161050d816118cb565b6020808252810161050d8161191e565b6020810161050d828461196c565b60405181810167ffffffffffffffff81118282101715611b4757600080fd5b604052919050565b600067ffffffffffffffff821115611b6657600080fd5b506020601f91909101601f19160190565b60009081526020902090565b5190565b90815260200190565b600061050d82611bad565b151590565b6001600160e01b03191690565b6001600160a01b031690565b82818337506000910152565b60005b83811015611be0578181015183820152602001611bc8565b838111156107bc5750506000910152565b601f01601f191690565b611c0481611b90565b8114610f3457600080fd5b611c0481611b9b565b611c0481611ba0565b611c048161033b56fea365627a7a7231582081875520c21d53493f7e99539cfe79d7d05c25e4a378e076bcb164928136df376c6578706572696d656e74616cf564736f6c63430005110040",
    "linkReferences": {},
    "deployedLinkReferences": {}
}